:100000000C9446000C9465000C9465000C946500FB
:100010000C9465000C9465000C9465000C946500CC
:100020000C9465000C9465000C9465000C946500BC
:100030000C9465000C9465000C9465000C946500AC
:100040000C9465000C9465000C9465000C9465009C
:100050000C9465000C9465000C9465000C9465008C
:100060000C9465000C9465000C9465000C9465007C
:100070000C9465000C9465000C9465000C9465006C
:100080000C9465000C9465000C94650011241FBE4F
:10009000CFEFD0E4DEBFCDBF11E0A0E0B1E0E0EDF6
:1000A000F7E000E00BBF02C007900D92AE30B10741
:1000B000D9F721E0AEE0B1E001C01D92A431B20752
:1000C000E1F70E9432020C94E6030C940000CF93F7
:1000D000DF9300D01F92CDB7DEB789837B836A831D
:1000E00089818A3031F48A819B81BC018DE00E9434
:1000F000670080EC90E0FC018081882F90E08072A6
:100100009927892BB1F386EC90E02981FC012083AB
:1001100080E090E00F900F900F90DF91CF910895C5
:100120000F931F93CF93DF9300D000D000D0CDB7B3
:10013000DEB76B837C838D839E8380910E019091CB
:100140000F01A0911001B09111019C01AD016B81D3
:100150007C818D819E810E945202882309F47BC09C
:1001600020E030E0A9016B817C818D819E810E941D
:100170005202882351F481E990E021E930E0F9014D
:1001800020812870FC01208309C081E990E021E9E9
:1001900030E0F90120812360FC01208328E539E368
:1001A00044E75FE36B817C818D819E810E945202D6
:1001B000882344F488E990E02FEF3FEFFC0131837E
:1001C000208338C020E034E244EF56E46B817C8128
:1001D0008D819E810E947403181634F488E990E0A2
:1001E000FC011182108226C008E910E020E030E016
:1001F00040E053E46B817C818D819E810E94790374
:10020000DC01CB019C01AD0160E074E284EF9AE473
:100210000E945702DC01CB01BC01CD010E94C90242
:10022000DC01CB019A83898389819A810197F80146
:100230009183808384E990E0FC01118210828B819C
:100240009C81AD81BE8180930E0190930F01A0939C
:100250001001B0931101000026960FB6F894DEBF8E
:100260000FBECDBFDF91CF911F910F910895CF9316
:10027000DF93CDB7DEB780E990E020E4FC01208376
:1002800081E990E02BE0FC01208360E070E0CB018D
:100290000E9490000000DF91CF910895CF93DF93EB
:1002A000CDB7DEB780E990E0FC01108281E990E0F3
:1002B000FC0110820000DF91CF910895CF93DF936E
:1002C00000D01F92CDB7DEB780E290E0FC018081C4
:1002D000882F90E08170992721E0892B09F020E098
:1002E000298380E290E0FC018081809582708A837E
:1002F00080E290E0FC018081809584708B83809106
:1003000012019091130182309105E1F18330910542
:1003100028F4009759F0019781F067C08330910568
:1003200009F441C0049709F44FC05FC081E090E038
:1003300090931301809312015DC08981882339F065
:1003400082E090E0909313018093120153C08A8160
:10035000882339F083E090E0909313018093120199
:1003600049C08B81882339F084E090E09093130199
:10037000809312013FC081E090E09093130180933D
:10038000120138C08981882339F082E090E090938F
:100390001301809312012EC081E090E0909313012D
:1003A0008093120127C08A81882339F083E090E08E
:1003B00090931301809312011DC081E090E090930F
:1003C00013018093120116C08B81882339F084E0D9
:1003D00090E090931301809312010CC081E090E0B3
:1003E000909313018093120105C010921301109293
:1003F0001201000080911201909113018230910549
:10040000A1F08330910528F4009721F1019739F08C
:1004100022C08330910581F00497A9F01CC060E0F0
:1004200070E0CB010E94900016C064EA70ED82E893
:1004300093E40E9490000FC06BE774ED82E993E4AF
:100440000E94900008C064EA70ED84EA93E40E9480
:10045000900001C0000000000F900F900F90DF91FE
:10046000CF910895CF93DF93CDB7DEB781E290E0CF
:10047000FC01108282E290E02FEFFC01208384E2F5
:1004800090E02FEFFC01208385E290E0FC011082D8
:100490000E94370160E070E0CB010E9490000E9452
:1004A0005E01FDCF0E94FF0208F481E008950E94E2
:1004B0006B020C943A030E94330358F00E942C0301
:1004C00040F029F45F3F29F00C94230351110C9460
:1004D0006E030C9429030E944B0368F39923B1F334
:1004E000552391F3951B550BBB27AA27621773075A
:1004F000840738F09F5F5F4F220F331F441FAA1FEE
:10050000A9F335D00E2E3AF0E0E832D091505040A9
:10051000E695001CCAF72BD0FE2F29D0660F771F57
:10052000881FBB1F261737074807AB07B0E809F03D
:10053000BB0B802DBF01FF2793585F4F3AF09E3FC2
:10054000510578F00C9423030C946E035F3FE4F3A1
:10055000983ED4F3869577956795B795F7959F5F05
:10056000C9F7880F911D9695879597F90895E1E051
:10057000660F771F881FBB1F621773078407BA07B0
:1005800020F0621B730B840BBA0BEE1F88F7E0950B
:1005900008950E94D0026894B1110C946E030895DE
:1005A0000E94530388F09F5798F0B92F9927B751AD
:1005B000B0F0E1F0660F771F881F991F1AF0BA9507
:1005C000C9F714C0B13091F00E946D03B1E00895F5
:1005D0000C946D03672F782F8827B85F39F0B93FE7
:1005E000CCF3869577956795B395D9F73EF49095BA
:1005F0008095709561957F4F8F4F9F4F0895990F0C
:100600000008550FAA0BE0E8FEEF16161706E807DC
:10061000F907C0F012161306E407F50798F0621BFD
:10062000730B840B950B39F40A2661F0232B242BD2
:10063000252B21F408950A2609F4A140A6958FEFF1
:10064000811D811D089597F99F6780E870E060E043
:1006500008959FEF80EC089500240A94161617065B
:1006600018060906089500240A94121613061406A3
:1006700005060895092E0394000C11F4882352F006
:10068000BB0F40F4BF2B11F460FF04C06F5F7F4FBE
:100690008F4F9F4F089557FD9058440F551F59F0A5
:1006A0005F3F71F04795880F97FB991F61F09F3F5F
:1006B00079F087950895121613061406551FF2CF88
:1006C0004695F1DF08C0161617061806991FF1CFD8
:1006D00086957105610508940895E894BB276627FF
:1006E0007727CB0197F908950E94FF0208F48FEF56
:1006F00008950E948C030C943A030E942C0338F056
:100700000E94330320F0952311F00C9423030C94E2
:10071000290311240C946E030E944B0370F3959FE0
:10072000C1F3950F50E0551F629FF001729FBB27E8
:10073000F00DB11D639FAA27F00DB11DAA1F649F84
:100740006627B00DA11D661F829F2227B00DA11D37
:10075000621F739FB00DA11D621F839FA00D611DBD
:10076000221F749F3327A00D611D231F849F600DDE
:10077000211D822F762F6A2F11249F5750409AF007
:10078000F1F088234AF0EE0FFF1FBB1F661F771F93
:10079000881F91505040A9F79E3F510580F00C945E
:1007A00023030C946E035F3FE4F3983ED4F38695E5
:1007B00077956795B795F795E7959F5FC1F7FE2BFE
:1007C000880F911D9695879597F90895F894FFCF16
:0E07D0000000000200000000670000000000B2
:00000001FF
