:100000000C9446000C9465000C9465000C946500FB
:100010000C9465000C9465000C9465000C946500CC
:100020000C9465000C9465000C9465000C946500BC
:100030000C9465000C9465000C9465000C946500AC
:100040000C9465000C9465000C9465000C9465009C
:100050000C9465000C9465000C9465000C9465008C
:100060000C9465000C9465000C9465000C9465007C
:100070000C9465000C9465000C9465000C9465006C
:100080000C9465000C9465000C94650011241FBE4F
:10009000CFEFD0E4DEBFCDBF11E0A0E0B1E0EEE9EC
:1000A000F7E000E00BBF02C007900D92AE30B10741
:1000B000D9F721E0AEE0B1E001C01D92A431B20752
:1000C000E1F70E9419020C94CD030C940000CF9329
:1000D000DF9300D01F92CDB7DEB789837B836A831D
:1000E00089818A3031F48A819B81BC018DE00E9434
:1000F000670080EC90E0FC018081882F90E08072A6
:100100009927892BB1F386EC90E02981FC012083AB
:1001100080E090E00F900F900F90DF91CF910895C5
:100120000F931F93CF93DF9300D000D000D0CDB7B3
:10013000DEB76B837C838D839E8380910E019091CB
:100140000F01A0911001B09111019C01AD016B81D3
:100150007C818D819E810E943902882309F47BC0B5
:1001600020E030E0A9016B817C818D819E810E941D
:100170003902882351F481E990E021E930E0F90166
:1001800020812870FC01208309C081E990E021E9E9
:1001900030E0F90120812360FC01208328E539E368
:1001A00044E75FE36B817C818D819E810E943902EF
:1001B000882344F488E990E02FEF3FEFFC0131837E
:1001C000208338C020E034E244EF56E46B817C8128
:1001D0008D819E810E945B03181634F488E990E0BB
:1001E000FC011182108226C008E910E020E030E016
:1001F00040E053E46B817C818D819E810E9460038D
:10020000DC01CB019C01AD0160E074E284EF9AE473
:100210000E943E02DC01CB01BC01CD010E94B00274
:10022000DC01CB019A83898389819A810197F80146
:100230009183808384E990E0FC01118210828B819C
:100240009C81AD81BE8180930E0190930F01A0939C
:100250001001B0931101000026960FB6F894DEBF8E
:100260000FBECDBFDF91CF911F910F910895CF9316
:10027000DF93CDB7DEB780E990E020E4FC01208376
:1002800081E990E02BE0FC01208360E070E0CB018D
:100290000E9490000000DF91CF910895CF93DF93EB
:1002A000CDB7DEB780E990E0FC01108281E990E0F3
:1002B000FC0110820000DF91CF910895CF93DF936E
:1002C0001F92CDB7DEB780E290E0FC01808180957F
:1002D000877089838091120190911301823091057A
:1002E000D1F18330910528F4009759F0019781F0FE
:1002F00065C08330910509F43FC0049709F44DC0EF
:100300005DC081E090E090931301809312015BC087
:100310008981813031F482E090E0909313018093E1
:1003200012018981823031F483E090E090931301CF
:10033000809312018981843039F484E090E09093B5
:100340001301809312013FC081E090E0909313016C
:100350008093120138C08981813039F482E090E0C5
:1003600090931301809312012EC081E090E090934E
:1003700013018093120127C08981823039F483E010
:1003800090E090931301809312011DC081E090E0F2
:10039000909313018093120116C08981843039F43F
:1003A00084E090E090931301809312010CC081E0EF
:1003B00090E0909313018093120105C010921301F5
:1003C000109212010000809112019091130182306D
:1003D0009105A1F08330910528F4009721F1019750
:1003E00039F022C08330910581F00497A9F01CC038
:1003F00060E070E0CB010E94900016C064EA70EDEE
:1004000082E893E40E9490000FC06BE774ED82E9EC
:1004100093E40E94900008C064EA70ED84EA93E4DB
:100420000E94900001C0000000000F90DF91CF916A
:100430000895CF93DF93CDB7DEB781E290E0FC0162
:10044000108282E290E02FEFFC01208384E290E0B2
:100450002FEFFC01208385E290E0FC0110820E94D6
:10046000370160E070E0CB010E9490000E945E01C5
:10047000FDCF0E94E60208F481E008950E94520236
:100480000C9421030E941A0358F00E94130340F0B9
:1004900029F45F3F29F00C940A0351110C94550381
:1004A0000C9410030E94320368F39923B1F355238F
:1004B00091F3951B550BBB27AA2762177307840777
:1004C00038F09F5F5F4F220F331F441FAA1FA9F30D
:1004D00035D00E2E3AF0E0E832D091505040E695FB
:1004E000001CCAF72BD0FE2F29D0660F771F881F5C
:1004F000BB1F261737074807AB07B0E809F0BB0B4F
:10050000802DBF01FF2793585F4F3AF09E3F510562
:1005100078F00C940A030C9455035F3FE4F3983E83
:10052000D4F3869577956795B795F7959F5FC9F74B
:10053000880F911D9695879597F90895E1E0660FCC
:10054000771F881FBB1F621773078407BA0720F045
:10055000621B730B840BBA0BEE1F88F7E0950895AE
:100560000E94B7026894B1110C94550308950E943B
:100570003A0388F09F5798F0B92F9927B751B0F0F8
:10058000E1F0660F771F881F991F1AF0BA95C9F717
:1005900014C0B13091F00E945403B1E008950C945E
:1005A0005403672F782F8827B85F39F0B93FCCF311
:1005B000869577956795B395D9F73EF49095809594
:1005C000709561957F4F8F4F9F4F0895990F000849
:1005D000550FAA0BE0E8FEEF16161706E807F90715
:1005E000C0F012161306E407F50798F0621B730BB0
:1005F000840B950B39F40A2661F0232B242B252B31
:1006000021F408950A2609F4A140A6958FEF811DD3
:10061000811D089597F99F6780E870E060E0089574
:100620009FEF80EC089500240A941616170618060A
:100630000906089500240A941216130614060506E6
:100640000895092E0394000C11F4882352F0BB0F77
:1006500040F4BF2B11F460FF04C06F5F7F4F8F4FDA
:100660009F4F089557FD9058440F551F59F05F3F15
:1006700071F04795880F97FB991F61F09F3F79F0C4
:1006800087950895121613061406551FF2CF469546
:10069000F1DF08C0161617061806991FF1CF8695C8
:1006A0007105610508940895E894BB2766277727AC
:1006B000CB0197F908950E94E60208F48FEF0895A0
:1006C0000E9473030C9421030E94130338F00E94CC
:1006D0001A0320F0952311F00C940A030C941003D4
:1006E00011240C9455030E94320370F3959FC1F3BB
:1006F000950F50E0551F629FF001729FBB27F00DD0
:10070000B11D639FAA27F00DB11DAA1F649F662724
:10071000B00DA11D661F829F2227B00DA11D621F73
:10072000739FB00DA11D621F839FA00D611D221F2D
:10073000749F3327A00D611D231F849F600D211D11
:10074000822F762F6A2F11249F5750409AF0F1F094
:1007500088234AF0EE0FFF1FBB1F661F771F881FFD
:1007600091505040A9F79E3F510580F00C940A0328
:100770000C9455035F3FE4F3983ED4F38695779548
:100780006795B795F795E7959F5FC1F7FE2B880FA3
:0E079000911D9695879597F90895F894FFCFDF
:0E079E000000000200000000670000000000E4
:00000001FF
