:100000000C9456000C9475000C9475000C947500BB
:100010000C9475000C9475000C9475000C9475008C
:100020000C9475000C9475000C9475000C9475007C
:100030000C9475000C94EE000C9475000C947500F3
:100040000C9475000C9475000C9475000C9475005C
:100050000C9475000C9475000C9475000C9475004C
:100060000C9475000C9475000C9475000C9475003C
:100070000C9475000C9475000C9475000C9475002C
:100080000C9475000C9475000C9475007B02820230
:100090009D02B802C802D802E802F80274032D03D8
:1000A0007403330340034D035A03670311241FBE37
:1000B000CFEFD0E4DEBFCDBF11E0A0E0B1E0E8E8D3
:1000C000FAE000E00BBF02C007900D92A233B10727
:1000D000D9F721E0A2E3B1E001C01D92A034B2073C
:1000E000E1F70E947B030C9442050C940000CF932F
:1000F000DF9300D01F92CDB7DEB789837B836A83FD
:1001000089818A3031F48A819B81BC018DE00E9413
:10011000770080EC90E0FC018081882F90E0807275
:100120009927892BB1F386EC90E02981FC0120838B
:1001300080E090E00F900F900F90DF91CF910895A5
:10014000CF93DF93CDB7DEB781E890E02BE0FC01E1
:10015000208388E890E02DE730E0FC0131832083A4
:100160008FE690E022E0FC01208384E890E0FC012F
:100170001182108280910E0190910F01A0911001C7
:10018000B09111018093330190933401A093350114
:10019000B09336018FE590E02FE530E0F901208142
:1001A0002068FC0120830000DF91CF910895CF9358
:1001B000DF93CDB7DEB781E890E0FC01108200004C
:1001C000DF91CF910895CF93DF93CDB7DEB781E074
:1001D000809332010000DF91CF9108951F920F921A
:1001E00000905F000F92112400905B000F922F93FC
:1001F0003F934F935F936F937F938F939F93AF93AF
:10020000BF93EF93FF93CF93DF93CDB7DEB780918A
:10021000330190913401A0913501B09136010197DD
:10022000A109B1098093330190933401A093350162
:10023000B09336018091330190913401A091350142
:10024000B0913601892B8A2B8B2B91F40E94E3000D
:1002500080910E0190910F01A0911001B0911101B8
:100260008093330190933401A0933501B09336010C
:100270000000DF91CF91FF91EF91BF91AF919F91DE
:100280008F917F916F915F914F913F912F910F903F
:1002900000925B000F9000925F000F901F901895E6
:1002A000CF93DF9300D000D0CDB7DEB769837A83D8
:1002B0008B839C8389819A81AB81BC8180930E0161
:1002C00090930F01A0931001B093110180910E0142
:1002D00090910F01A0911001B09111018093330111
:1002E00090933401A0933501B093360100000F9034
:1002F0000F900F900F90DF91CF9108950F931F9360
:10030000CF93DF9300D000D000D0CDB7DEB76B83A2
:100310007C838D839E8380913A0190913B01A091D3
:100320003C01B0913D019C01AD016B817C818D81CF
:100330009E810E94AE03882309F47BC020E030E058
:10034000A9016B817C818D819E810E94AE038823EF
:1003500051F481E990E021E930E0F9012081287031
:10036000FC01208309C081E990E021E930E0F90136
:1003700020812360FC01208328E539E344E75FE323
:100380006B817C818D819E810E94AE03882344F421
:1003900088E990E02FEF3FEFFC013183208338C0E4
:1003A00020E034E244EF56E46B817C818D819E81B4
:1003B0000E94D004181634F488E990E0FC01118200
:1003C000108226C008E910E020E030E040E053E46D
:1003D0006B817C818D819E810E94D504DC01CB01E3
:1003E0009C01AD0160E074E284EF9AE40E94B303E3
:1003F000DC01CB01BC01CD010E942504DC01CB0155
:100400009A83898389819A810197F80191838083F6
:1004100084E990E0FC01118210828B819C81AD8186
:10042000BE8180933A0190933B01A0933C01B0932D
:100430003D01000026960FB6F894DEBF0FBECDBF7B
:10044000DF91CF911F910F910895CF93DF93CDB797
:10045000DEB780E990E020E4FC01208381E990E0B0
:100460002BE0FC01208360E070E0CB010E947E0164
:100470000000DF91CF910895CF93DF93CDB7DEB722
:1004800080E990E0FC01108281E990E0FC0110829B
:100490000000DF91CF910895CF93DF9300D0CDB7C7
:1004A000DEB780E290E0FC018081882F90E08170CF
:1004B000992721E0892B09F020E0298380E290E050
:1004C000FC018081809582708A8380913E019091A9
:1004D0003F01CC01A0E0B0E040E050E027E030E098
:1004E000841B950B2817390708F49CC08A5B9F4F23
:1004F000FC010C94A50381E090E090933F01809370
:100500003E0195C08981882339F082E090E0909384
:100510003F0180933E018BC08A81882339F081E0BE
:1005200090E090933F0180933E0181C081E090E094
:1005300090933F0180933E017AC08981882339F0EE
:1005400082E090E090933F0180933E0170C08A81E9
:10055000882339F081E090E090933F0180933E0141
:1005600066C083E090E090933F0180933E015FC0BE
:100570008A81882331F081E090E090933F0180935D
:100580003E0184E090E090933F0180933E014FC094
:100590008A81882331F081E090E090933F0180933D
:1005A0003E0185E090E090933F0180933E013FC083
:1005B0008A81882331F081E090E090933F0180931D
:1005C0003E0186E090E090933F0180933E012FC072
:1005D0008A81882331F081E090E090933F018093FD
:1005E0003E0187E090E090933F0180933E011FC061
:1005F0008981882339F082E090E090933F018093D5
:100600003E0110C08A81882339F081E090E0909308
:100610003F0180933E0106C081E090E090933F014E
:1006200080933E0110923F0110923E0100008091A4
:100630003E0190913F01CC01A0E0B0E040E050E0ED
:1006400027E030E0841B950B2817390708F44DC0CC
:10065000825B9F4FFC010C94A50360E070E0CB012E
:100660000E947E0142C080912A0190912B01A091AD
:100670002C01B0912D01BC01CD010E947E0135C03D
:100680008091160190911701A0911801B091190164
:10069000BC01CD010E947E0128C08091260190916D
:1006A0002701A0912801B0912901BC01CD010E9430
:1006B0007E011BC080911E0190911F01A09120011D
:1006C000B0912101BC01CD010E947E010EC080913C
:1006D000220190912301A0912401B0912501BC0138
:1006E000CD010E947E0101C0000000000F900F901C
:1006F000DF91CF910895CF93DF93CDB7DEB781E23D
:1007000090E0FC01108282E290E02FEFFC01208358
:1007100084E290E02FEFFC01208385E290E0FC0171
:1007200010826AE872E080E090E00E9450010E942E
:10073000A0000E9425020E944C020000809132011C
:100740008823E1F310923201F6CFEE0FFF1F002451
:10075000001C0BBE0790F691E02D09940E945B04EB
:1007600008F481E008950E94C7030C9496040E9447
:100770008F0458F00E94880440F029F45F3F29F06C
:100780000C947F0451110C94CA040C9485040E94AB
:10079000A70468F39923B1F3552391F3951B550BE7
:1007A000BB27AA2762177307840738F09F5F5F4F44
:1007B000220F331F441FAA1FA9F335D00E2E3AF083
:1007C000E0E832D091505040E695001CCAF72BD09B
:1007D000FE2F29D0660F771F881FBB1F26173707EC
:1007E0004807AB07B0E809F0BB0B802DBF01FF271E
:1007F00093585F4F3AF09E3F510578F00C947F0478
:100800000C94CA045F3FE4F3983ED4F38695779541
:100810006795B795F7959F5FC9F7880F911D9695D6
:10082000879597F90895E1E0660F771F881FBB1F32
:10083000621773078407BA0720F0621B730B840BDF
:10084000BA0BEE1F88F7E09508950E942C04689477
:10085000B1110C94CA0408950E94AF0488F09F5708
:1008600098F0B92F9927B751B0F0E1F0660F771FD4
:10087000881F991F1AF0BA95C9F714C0B13091F0CA
:100880000E94C904B1E008950C94C904672F782F21
:100890008827B85F39F0B93FCCF38695779567958F
:1008A000B395D9F73EF490958095709561957F4FFB
:1008B0008F4F9F4F0895990F0008550FAA0BE0E83E
:1008C000FEEF16161706E807F907C0F01216130612
:1008D000E407F50798F0621B730B840B950B39F452
:1008E0000A2661F0232B242B252B21F408950A26B8
:1008F00009F4A140A6958FEF811D811D089597F9F8
:100900009F6780E870E060E008959FEF80EC0895B5
:1009100000240A94161617061806090608950024DE
:100920000A9412161306140605060895092E039458
:10093000000C11F4882352F0BB0F40F4BF2B11F4CC
:1009400060FF04C06F5F7F4F8F4F9F4F089557FD2B
:100950009058440F551F59F05F3F71F04795880F2D
:1009600097FB991F61F09F3F79F0879508951216C4
:1009700013061406551FF2CF4695F1DF08C0161670
:1009800017061806991FF1CF869571056105089421
:100990000895E894BB2766277727CB0197F9089538
:1009A0000E945B0408F48FEF08950E94E8040C9401
:1009B00096040E94880438F00E948F0420F095234A
:1009C00011F00C947F040C94850411240C94CA0437
:1009D0000E94A70470F3959FC1F3950F50E0551F37
:1009E000629FF001729FBB27F00DB11D639FAA2784
:1009F000F00DB11DAA1F649F6627B00DA11D661FD3
:100A0000829F2227B00DA11D621F739FB00DA11DF3
:100A1000621F839FA00D611D221F749F3327A00DAD
:100A2000611D231F849F600D211D822F762F6A2F49
:100A300011249F5750409AF0F1F088234AF0EE0FAE
:100A4000FF1FBB1F661F771F881F91505040A9F7DB
:100A50009E3F510580F00C947F040C94CA045F3FC4
:100A6000E4F3983ED4F3869577956795B795F79517
:100A7000E7959F5FC1F7FE2B880F911D969587958F
:080A800097F90895F894FFCFE7
:100A880000000002000000007700000000000100E4
:100A98000000A4D08243A4D09243A4D0A443719D63
:100AA800AE430000C4430000DC43A4F0F64300D08A
:020AB8000244F6
:00000001FF
