:100000000C9446000C9465000C9465000C946500FB
:100010000C9465000C9465000C9465000C946500CC
:100020000C9465000C9465000C9465000C946500BC
:100030000C9465000C9465000C9465000C946500AC
:100040000C9465000C9465000C9465000C9465009C
:100050000C9465000C9465000C9465000C9465008C
:100060000C9465000C9465000C9465000C9465007C
:100070000C9465000C9465000C9465000C9465006C
:100080000C9465000C9465000C94650011241FBE4F
:10009000CFEFD0E4DEBFCDBF11E0A0E0B1E0E6E7F6
:1000A000F2E000E00BBF02C007900D92AE30B10746
:1000B000D9F721E0AEE0B1E001C01D92A031B20756
:1000C000E1F70E941C010C9439010C940000CF93BD
:1000D000DF9300D00F92CDB7DEB789837B836A832D
:1000E00089818A3031F48A819B81BC018DE00E9434
:1000F000670080EC90E0FC018081882F90E08072A6
:100100009927892BB1F386EC90E02981FC012083AB
:1001100080E090E00F900F900F90DF91CF910895C5
:10012000CF93DF930F92CDB7DEB780E290E0FC0172
:1001300080818170898380910E0190910F018330BD
:10014000910569F184309105D8F58230910501F16E
:1001500083309105A8F5009719F0019741F030C060
:1001600081E090E090930F0180930E012EC0898171
:10017000813039F482E090E090930F0180930E017A
:1001800024C081E090E090930F0180930E011DC088
:1001900083E090E090930F0180930E0116C0898157
:1001A000813039F481E090E090930F0180930E014B
:1001B0000CC083E090E090930F0180930E0105C086
:1001C00010920F0110920E01000080910E0190918B
:1001D0000F018330910501F18430910510F58230D3
:1001E0009105A1F083309105E0F4009719F0019793
:1001F00039F017C085E290E021E0FC01208317C0B0
:1002000085E290E021E0FC01208311C085E290E0CE
:1002100022E0FC0120830BC085E290E022E0FC019B
:10022000208385E290E021E0FC01208300000000B3
:100230000F90DF91CF910895CF93DF93CDB7DEB7C5
:1002400081E290E0FC01108282E290E02FEFFC015D
:10025000208384E290E02FEFFC01208385E290E090
:10026000FC01108210920F0110920E010E9490006A
:06027000FDCFF894FFCF62
:0E027600000000020000000067000000000011
:00000001FF
