:100000000C9446000C945D000C945D000C945D0013
:100010000C945D000C945D000C945D000C945D00EC
:100020000C945D000C945D000C945D000C945D00DC
:100030000C945D000C945D000C945D000C945D00CC
:100040000C945D000C945D000C945D000C945D00BC
:100050000C945D000C945D000C945D000C945D00AC
:100060000C945D000C945D000C945D000C945D009C
:100070000C945D000C945D000C945D000C945D008C
:100080000C945D000C945D000C945D0011241FBE67
:10009000CFEFD0E4DEBFCDBF11E0A0E0B1E0EAE7F2
:1000A000F1E000E00BBF02C007900D92AE30B10747
:1000B000D9F70E9488000C94BB000C940000CF93E9
:1000C000DF9300D01F92CDB7DEB789837B836A832D
:1000D00089818A3031F48A819B81BC018DE00E9444
:1000E0005F0080EC90E0FC018081882F90E08072BE
:1000F0009927892BB1F386EC90E02981FC012083BC
:1001000080E090E00F900F900F90DF91CF910895D5
:10011000CF93DF931F92CDB7DEB784E290E02FEF4D
:10012000FC01208385E290E0FC01108281E290E0F6
:10013000FC01108282E290E02FEFFC012083198203
:1001400080E290E0FC018081882F90E08170992707
:1001500021E0892B09F020E029838981882331F06F
:1001600085E290E027E0FC012083EACF85E290E081
:0A017000FC011082E5CFF894FFCFE8
:0E017A0000000002000000005F000000000016
:00000001FF
