:100000000C9446000C9465000C9465000C946500FB
:100010000C9465000C9465000C9465000C946500CC
:100020000C9465000C9465000C9465000C946500BC
:100030000C9465000C94D9010C9465000C94650037
:100040000C9465000C9465000C9465000C9465009C
:100050000C9465000C9465000C9465000C9465008C
:100060000C9465000C9465000C9465000C9465007C
:100070000C9465000C9465000C9465000C9465006C
:100080000C9465000C9465000C94650011241FBE4F
:10009000CFEFD0E4DEBFCDBF11E0A0E0B1E0E0E7FC
:1000A000F8E000E00BBF02C007900D92AE31B1073F
:1000B000D9F721E0AEE1B1E001C01D92A832B2074C
:1000C000E1F70E94F8030C9436040C940000CF93DF
:1000D000DF93CDB7DEB781E00E948E000000DF9194
:1000E000CF910895CF93DF93CDB7DEB784E690E04C
:1000F0000E94320188E30E948E0086E00E948E00FA
:100100008FE00E948E0081E00E948E008AE090E0E5
:100110000E9432010000DF91CF910895CF93DF93C9
:100120001F92CDB7DEB789838BE290E02BE230E0FF
:10013000F90120812F7BFC01208388E290E0298156
:10014000FC0120838BE290E02BE230E0F90120817A
:100150002068FC01208300008BE290E02BE230E07D
:10016000F90120812F77FC01208382E090E00E943A
:10017000320100000F90DF91CF910895CF93DF936C
:100180001F92CDB7DEB789838BE290E02BE230E09F
:10019000F90120812064FC01208388E290E029811C
:1001A000FC0120838BE290E02BE230E0F90120811A
:1001B0002068FC01208300008BE290E02BE230E01D
:1001C000F90120812F77FC01208381E090E00E94DB
:1001D000320100000F90DF91CF910895CF93DF930C
:1001E00000D000D0CDB7DEB78A837C836B830E94BA
:1001F00067008A81898311C0898191E0980F998372
:100200000E941B018B819C819C012F5F3F4F3C838F
:100210002B83FC0180810E94BE008B819C81FC01AC
:100220008081882349F700000F900F900F900F9066
:10023000DF91CF910895CF93DF931F92CDB7DEB7B3
:1002400089838981813128F4898181580E948E00B7
:1002500004C0898181550E948E0000000F90DF91BB
:10026000CF910895CF93DF9300D000D000D0CDB7C9
:10027000DEB79E838D831A82198213C01C821B8273
:1002800006C000008B819C8101969C838B838B81AF
:100290009C8187309340ACF389819A8101969A833F
:1002A000898329813A818D819E812817390734F30A
:1002B000000026960FB6F894DEBF0FBECDBFDF91CB
:1002C000CF910895CF93DF9300D01F92CDB7DEB7C3
:1002D00089837B836A8389818A3031F48A819B8117
:1002E000BC018DE00E94620180EC90E0FC01808105
:1002F000882F90E080729927892BB1F386EC90E0EB
:100300002981FC01208380E090E00F900F900F90F6
:10031000DF91CF910895CF93DF93CDB7DEB781E81A
:1003200090E02BE0FC01208388E890E02DE730E0AE
:10033000FC01318320838FE690E022E0FC012083E2
:1003400084E890E0FC011182108280910E0190916E
:100350000F01A0911001B091110180931F019093A2
:100360002001A0932101B09322018FE590E02FE5B9
:1003700030E0F90120812068FC0120830000DF913A
:10038000CF910895CF93DF93CDB7DEB781E890E0AA
:10039000FC0110820000DF91CF910895CF93DF938D
:1003A000CDB7DEB781E080931E010000DF91CF91D1
:1003B00008951F920F9200905F000F9211240090F9
:1003C0005B000F922F933F934F935F936F937F93B5
:1003D0008F939F93AF93BF93EF93FF93CF93DF934D
:1003E000CDB7DEB780911F0190912001A09121012E
:1003F000B09122010197A109B10980931F01909347
:100400002001A0932101B093220180911F019091BE
:100410002001A0912101B0912201892B8A2B8B2BE5
:1004200091F40E94CE0180910E0190910F01A09154
:100430001001B091110180931F0190932001A093AE
:100440002101B09322010000DF91CF91FF91EF9144
:10045000BF91AF919F918F917F916F915F914F91DC
:100460003F912F910F9000925B000F9000925F00E0
:100470000F901F901895CF93DF9300D000D0CDB789
:10048000DEB769837A838B839C8389819A81AB8170
:10049000BC8180930E0190930F01A0931001B09343
:1004A000110180910E0190910F01A0911001B09166
:1004B000110180931F0190932001A0932101B0931B
:1004C000220100000F900F900F900F90DF91CF91BD
:1004D0000895CF93DF931F92CDB7DEB780E290E00F
:1004E000FC018081882F90E08170992721E0892B81
:1004F00009F020E029838091260190912701823024
:10050000910541F18330910530F4009781F0019716
:1005100009F4D5C0F4C08430910509F498C0843042
:10052000910508F44FC0059709F4DAC0E8C01092AD
:10053000230181E00E941B010E946700809112014B
:10054000805D0E94BE0082E090E09093270180933E
:100550002601DEC081E08093230181E080932401A5
:100560008981882341F180911201882379F080915B
:10057000120181508093120181E00E941B010E94B0
:10058000670080911201805D0E94BE00809112017F
:10059000882351F481E00E941B010E946700809132
:1005A0001201805D0E94BE0081E090E090932701DF
:1005B00080932601ADC083E090E090932701809363
:1005C0002601A6C082E0809323018981882341F11E
:1005D00080911201893078F4809112018F5F8093AD
:1005E000120181E00E941B010E94670080911201AC
:1005F000805D0E94BE0080911201893051F481E03B
:100600000E941B010E94670063E171E083E00E9489
:10061000EE0081E090E0909327018093260177C05F
:1006200080912401813039F484E090E09093270197
:10063000809326016CC080912401823009F067C04C
:1006400082E090E0909327018093260160C083E0D0
:100650008093230182E0809324018981882341F1E2
:1006600080911201882379F080911201815080934A
:10067000120181E00E941B010E946700809112011B
:10068000805D0E94BE0080911201882351F481E0B8
:100690000E941B010E94670080911201805D0E94F0
:1006A000BE0081E090E0909327018093260130C046
:1006B00083E090E0909327018093260129C08981EF
:1006C000882339F085E090E09093270180932601FC
:1006D0001FC081E090E0909327018093260118C00D
:1006E0008981882329F4109227011092260110C0D5
:1006F00085E090E0909327018093260109C0109235
:1007000027011092260185E08093120101C00000AC
:1007100080912601909127018230910509F44CC007
:100720008330910530F4009709F458C0019741F1E6
:100730005AC08430910509F44BC08430910508F407
:1007400041C0059709F04FC080912301813029F401
:1007500085E290E021E0FC0120838091230182303A
:1007600029F485E290E022E0FC01208380912301BE
:100770008330B1F585E290E024E0FC01208330C0B5
:1007800080912301813029F485E290E021E0FC0191
:10079000208380912301823029F485E290E022E0D9
:1007A000FC012083809123018330E1F485E290E015
:1007B00024E0FC01208316C085E290E021E0FC01EA
:1007C000208311C085E290E022E0FC0120830BC071
:1007D00085E290E024E0FC01208305C0000003C016
:1007E000000001C0000000000F90DF91CF9108953C
:1007F000CF93DF93CDB7DEB781E290E0FC011082AA
:1008000082E290E02FEFFC01208384E290E02FEF62
:10081000FC01208385E290E0FC01108287E290E0F9
:100820002FEFFC01208388E290E0FC0110828AE235
:1008300090E02FEFFC0120838BE290E0FC0110821E
:100840006CE271E080E090E00E943B020E948B012C
:100850000E9472000E9467000E946902000080915D
:100860001E018823E1F310921E01F6CFF894FFCF0A
:100870000000000200000000620100000000010012
:0E088000000005436F6E677261747321000003
:00000001FF
