:100000000C9446000C9465000C9465000C946500FB
:100010000C9465000C9465000C9465000C946500CC
:100020000C9465000C9465000C9465000C946500BC
:100030000C9465000C940C010C9465000C94650004
:100040000C9465000C9465000C9465000C9465009C
:100050000C9465000C9465000C9465000C9465008C
:100060000C9465000C9465000C9465000C9465007C
:100070000C9465000C9465000C9465000C9465006C
:100080000C9465000C9465000C94650011241FBE4F
:10009000CFEFD0E4DEBFCDBF11E0A0E0B1E0EAE1F8
:1000A000F4E000E00BBF02C007900D92A231B1074F
:1000B000D9F721E0A2E1B1E001C01D92AC31B20755
:1000C000E1F70E94D9010C940B020C940000CF932D
:1000D000DF9300D01F92CDB7DEB789837B836A831D
:1000E00089818A3031F48A819B81BC018DE00E9434
:1000F000670080EC90E0FC018081882F90E08072A6
:100100009927892BB1F386EC90E02981FC012083AB
:1001100080E090E00F900F900F90DF91CF910895C5
:10012000CF93DF9300D000D0CDB7DEB769837A8359
:100130008B839C8389819A81AB81BC8180930E01E2
:1001400090930F01A0931001B093110180910E01C3
:1001500090910F01A0911001B091110180931301B2
:1001600090931401A0931501B093160100000F9015
:100170000F900F900F90DF91CF910895CF93DF9361
:10018000CDB7DEB781E890E02BE0FC01208388E862
:1001900090E02DE730E0FC01318320838FE690E092
:1001A00022E0FC01208384E890E0FC0111821082AF
:1001B00080910E0190910F01A0911001B091110159
:1001C0008093130190931401A0931501B09316012D
:1001D0008FE590E02FE530E0F90120812068FC01F7
:1001E00020830000DF91CF910895CF93DF93CDB7A7
:1001F000DEB781E890E0FC0110820000DF91CF9132
:100200000895CF93DF93CDB7DEB781E080931201DD
:100210000000DF91CF9108951F920F9200905F0030
:100220000F92112400905B000F922F933F934F93F6
:100230005F936F937F938F939F93AF93BF93EF934E
:10024000FF93CF93DF93CDB7DEB7809113019091E9
:100250001401A0911501B09116010197A109B109EE
:100260008093130190931401A0931501B09316018C
:100270008091130190911401A0911501B091160184
:10028000892B8A2B8B2B91F40E94010180910E0106
:1002900090910F01A0911001B09111018093130171
:1002A00090931401A0931501B09316010000DF9103
:1002B000CF91FF91EF91BF91AF919F918F917F91DE
:1002C0006F915F914F913F912F910F9000925B0042
:1002D0000F9000925F000F901F901895CF93DF93BF
:1002E000CDB7DEB78091170190911801009719F0F2
:1002F000019789F00BC081E090E090931801809302
:10030000170185E290E0FC01108206C010921801EE
:100310001092170101C000008091170190911801FF
:10032000009719F0019731F00CC085E290E0FC01D4
:10033000108207C085E290E020911901FC01208322
:1003400000000000DF91CF910895CF93DF93CDB7E8
:10035000DEB780911A0190911B01009719F0019767
:1003600079F009C081E090E090931B0180931A011D
:100370001092190106C010921B0110921A0101C0BF
:10038000000080911A0190911B01009719F00197CC
:1003900021F00BC01092190108C080E290E0FC012E
:1003A000808180958093190100000000DF91CF913A
:1003B0000895CF93DF93CDB7DEB781E290E0FC01E3
:1003C000108282E290E02FEFFC01208384E290E033
:1003D0002FEFFC01208385E290E0FC01108264E6AF
:1003E00070E080E090E00E9490000E94BE001092B9
:1003F00018011092170110921B0110921A010E940D
:10040000A5010E946E010000809112018823E1F392
:0A04100010921201F4CFF894FFCF10
:10041A000000000200000000670000000000010068
:02042A000000D0
:00000001FF
