:100000000C9446000C9465000C9465000C946500FB
:100010000C9465000C9465000C9465000C946500CC
:100020000C9465000C9465000C9465000C946500BC
:100030000C9465000C94A3000C9465000C9465006E
:100040000C9465000C9465000C9465000C9465009C
:100050000C9465000C9465000C9465000C9465008C
:100060000C9465000C9465000C9465000C9465007C
:100070000C9465000C9465000C9465000C9465006C
:100080000C9465000C9465000C94650011241FBE4F
:10009000CFEFD0E4DEBFCDBF11E0A0E0B1E0E8ECEF
:1000A000F3E000E00BBF02C007900D92A231B10750
:1000B000D9F721E0A2E1B1E001C01D92AC31B20755
:1000C000E1F70E94CC010C94E2010C940000CF9364
:1000D000C82F8A3019F48DE00E9467008091C0001B
:1000E00085FFFCCFC093C60080E090E0CF910895DB
:1000F0008BE0809381008DE790E09093890080935E
:10010000880082E080936F00109285001092840036
:100110008091000190910101A0910201B091030131
:100120008093150190931601A0931701B0931801C5
:100130008FB780688FBF089510928100089581E085
:100140008093190108951F920F920FB60F921124F8
:100150000BB60F922F933F934F935F936F937F93C1
:100160008F939F93AF93BF93EF93FF93809115016C
:1001700090911601A0911701B09118010197A10962
:10018000B1098093150190931601A0931701B093C4
:100190001801892B8A2B8B2B91F40E949F00809150
:1001A000000190910101A0910201B091030180939F
:1001B000150190931601A0931701B0931801FF91B8
:1001C000EF91BF91AF919F918F917F916F915F91CF
:1001D0004F913F912F910F900BBE0F900FBE0F903C
:1001E0001F901895609300017093010180930201A4
:1001F000909303016093150170931601809317018A
:1002000090931801089580B1282F217080911A01D0
:1002100090911B0182309105C9F030F4009769F08C
:10022000019709F45EC07AC08430910509F443C097
:1002300010F1059709F465C071C01092140182E0B5
:1002400090E090931B0180931A0168C081E0809335
:10025000140180931301211107C081E090E0909375
:100260001B0180931A015AC083E090E090931B0118
:1002700080931A0153C082E080931401211107C0BA
:1002800081E090E090931B0180931A0147C0809118
:100290001301813039F484E090E090931B01809346
:1002A0001A013CC08230D1F582E090E090931B01AE
:1002B00080931A0133C083E08093140182E080931D
:1002C0001301211107C081E090E090931B018093FE
:1002D0001A0124C083E090E090931B0180931A01DF
:1002E0001DC0211107C085E090E090931B01809311
:1002F0001A0114C081E090E090931B0180931A01D1
:100300000DC0222329F010921B0110921A0106C081
:1003100085E090E090931B0180931A0180911A016F
:1003200090911B018330910589F130F48130910562
:10033000C9F0029741F108958430910551F1059774
:1003400051F580911401813009F485B9809114012F
:10035000823009F485B9809114018330E1F484E09E
:1003600085B9089580911401813009F485B980918F
:100370001401823009F485B980911401833059F455
:1003800084E085B9089581E085B9089582E085B952
:10039000089584E085B9089511B88FEF82B984B9C2
:1003A00015B86EE170E080E090E00E94F2000E94DB
:1003B00078000E940301809119018823E1F31092D3
:0803C0001901F7CFF894FFCFFB
:1003C80001000000000000020000000067000000BB
:0203D800000023
:00000001FF
