:100000000C9446000C9465000C9465000C946500FB
:100010000C9465000C9465000C9465000C946500CC
:100020000C9465000C9465000C9465000C946500BC
:100030000C9465000C94A3000C9465000C9465006E
:100040000C9465000C9465000C9465000C9465009C
:100050000C9465000C9465000C9465000C9465008C
:100060000C9465000C9465000C9465000C9465007C
:100070000C9465000C9465000C9465000C9465006C
:100080000C9465000C9465000C94650011241FBE4F
:10009000CFEFD0E4DEBFCDBF11E0A0E0B1E0ECE3F4
:1000A000F3E000E00BBF02C007900D92A431B1074E
:1000B000D9F721E0A4E1B1E001C01D92AC31B20753
:1000C000E1F70E9486010C949C010C940000CF93F0
:1000D000C82F8A3019F48DE00E9467008091C0001B
:1000E00085FFFCCFC093C60080E090E0CF910895DB
:1000F0008BE0809381008DE790E09093890080935E
:10010000880082E080936F00109285001092840036
:100110008091010190910201A0910301B09104012D
:100120008093150190931601A0931701B0931801C5
:100130008FB780688FBF089510928100089581E085
:100140008093190108951F920F920FB60F921124F8
:100150000BB60F922F933F934F935F936F937F93C1
:100160008F939F93AF93BF93EF93FF93809115016C
:1001700090911601A0911701B09118010197A10962
:10018000B1098093150190931601A0931701B093C4
:100190001801892B8A2B8B2B91F40E949F00809150
:1001A000010190910201A0910301B091040180939B
:1001B000150190931601A0931701B0931801FF91B8
:1001C000EF91BF91AF919F918F917F916F915F91CF
:1001D0004F913F912F910F900BBE0F900FBE0F903C
:1001E0001F901895609301017093020180930301A1
:1001F0009093040160931501709316018093170189
:1002000090931801089580B1282F217080911A01D0
:1002100090911B0182309105A1F030F4009751F0CC
:10022000019709F451C05DC083309105E9F004974E
:10023000C1F157C082E090E090931B0180931A01B6
:1002400050C081E080931401211107C081E090E04B
:1002500090931B0180931A0144C083E090E0909337
:100260001B0180931A013DC0211107C081E090E07D
:1002700090931B0180931A0134C080911401813046
:1002800039F484E090E090931B0180931A0129C017
:10029000823039F582E090E090931B0180931A013F
:1002A00020C082E080931401211107C081E090E01A
:1002B00090931B0180931A0114C083E090E0909307
:1002C0001B0180931A010DC0211105C010921B0162
:1002D00010921A0106C081E090E090931B01809378
:1002E0001A0180911A0190911B018330910541F010
:1002F0008430910541F0029741F481E085B9089579
:1003000082E085B9089584E085B9089511B88FEF2A
:1003100082B984B915B86EE170E080E090E00E9487
:10032000F2000E9478000E94030180911901882345
:0C033000E1F310921901F7CFF894FFCF11
:10033C000301000000000000020000000067000044
:04034C0000000000AD
:00000001FF
