:100000000C9446000C9465000C9465000C946500FB
:100010000C9465000C9465000C9465000C946500CC
:100020000C9465000C9465000C9465000C946500BC
:100030000C9465000C94A3000C9465000C9465006E
:100040000C9465000C9465000C9465000C9465009C
:100050000C9465000C9465000C9465000C9465008C
:100060000C9465000C9465000C9465000C9465007C
:100070000C9465000C9465000C9465000C9465006C
:100080000C9465000C9465000C94650011241FBE4F
:10009000CFEFD0E4DEBFCDBF11E0A0E0B1E0E6E7F6
:1000A000F3E000E00BBF02C007900D92A431B1074E
:1000B000D9F721E0A4E1B1E001C01D92AC31B20753
:1000C000E1F70E94A3010C94B9010C940000CF93B6
:1000D000C82F8A3019F48DE00E9467008091C0001B
:1000E00085FFFCCFC093C60080E090E0CF910895DB
:1000F0008BE0809381008DE790E09093890080935E
:10010000880082E080936F00109285001092840036
:100110008091010190910201A0910301B09104012D
:100120008093150190931601A0931701B0931801C5
:100130008FB780688FBF089510928100089581E085
:100140008093190108951F920F920FB60F921124F8
:100150000BB60F922F933F934F935F936F937F93C1
:100160008F939F93AF93BF93EF93FF93809115016C
:1001700090911601A0911701B09118010197A10962
:10018000B1098093150190931601A0931701B093C4
:100190001801892B8A2B8B2B91F40E949F00809150
:1001A000010190910201A0910301B091040180939B
:1001B000150190931601A0931701B0931801FF91B8
:1001C000EF91BF91AF919F918F917F916F915F91CF
:1001D0004F913F912F910F900BBE0F900FBE0F903C
:1001E0001F901895609301017093020180930301A1
:1001F0009093040160931501709316018093170189
:1002000090931801089580B1817020911A01309166
:100210001B012130310579F038F022303105D9F059
:100220002330310541F136C021E030E030931B012D
:1002300020931A012FC0811107C022E030E03093D3
:100240001B0120931A0126C021E030E030931B01EE
:1002500020931A011FC0811107C022E030E03093C3
:100260001B0120931A0116C023E030E030931B01DC
:1002700020931A010FC0811107C021E030E03093B4
:100280001B0120931A0106C023E030E030931B01CC
:1002900020931A0120911A0130911B012130310560
:1002A00021F023303105B9F108958091000181508A
:1002B0008093000190911401911117C0823011F4C4
:1002C00081E085B980910001813011F482E085B927
:1002D00080910001811136C084E085B983E080936C
:1002E000000181E0809314010895823011F484E0CC
:1002F00085B980910001813011F482E085B9809147
:10030000000181111FC081E085B983E08093000165
:100310001092140108958823A9F080910001823081
:1003200011F481E085B980910001813011F482E0FF
:1003300085B980910001811105C084E085B983E011
:1003400080930001089511B88FEF82B984B915B870
:100350006EE170E080E090E00E94F2000E94780080
:100360000E940301809119018823E1F31092190181
:06037000F7CFF894FFCF67
:10037600030100000000000002000000006700000A
:040386000000000073
:00000001FF
