:100000000C9446000C9465000C9465000C946500FB
:100010000C9465000C9465000C9465000C946500CC
:100020000C9465000C9465000C9465000C946500BC
:100030000C9465000C94A3000C9465000C9465006E
:100040000C9465000C9465000C9465000C9465009C
:100050000C9465000C9465000C9465000C9465008C
:100060000C9465000C9465000C9465000C9465007C
:100070000C9465000C9465000C9465000C9465006C
:100080000C9465000C9465000C94650011241FBE4F
:10009000CFEFD0E4DEBFCDBF11E0A0E0B1E0E6EEEF
:1000A000F3E000E00BBF02C007900D92A431B1074E
:1000B000D9F721E0A4E1B1E001C01D92AF31B20750
:1000C000E1F70E94DA010C94F1010C940000CF9347
:1000D000C82F8A3019F48DE00E9467008091C0001B
:1000E00085FFFCCFC093C60080E090E0CF910895DB
:1000F0008BE0809381008DE790E09093890080935E
:10010000880082E080936F00109285001092840036
:100110008091010190910201A0910301B09104012D
:100120008093180190931901A0931A01B0931B01B9
:100130008FB780688FBF089510928100089581E085
:1001400080931C0108951F920F920FB60F921124F5
:100150000BB60F922F933F934F935F936F937F93C1
:100160008F939F93AF93BF93EF93FF938091180169
:1001700090911901A0911A01B0911B010197A10959
:10018000B1098093180190931901A0931A01B093BB
:100190001B01892B8A2B8B2B91F40E949F0080914D
:1001A000010190910201A0910301B091040180939B
:1001B000180190931901A0931A01B0931B01FF91AC
:1001C000EF91BF91AF919F918F917F916F915F91CF
:1001D0004F913F912F910F900BBE0F900FBE0F903C
:1001E0001F901895609301017093020180930301A1
:1001F00090930401609318017093190180931A0180
:1002000090931B01089580B1982F917080B18095D3
:10021000827020911D0130911E0122303105E9F1DB
:1002200038F42115310569F02130310589F05CC0C1
:100230002330310509F441C02430310509F44DC0A3
:1002400053C081E090E090931E0180931D0150C047
:10025000911106C022E030E030931E0120931D0171
:10026000882331F023E030E030931E0120931D01FC
:10027000911108C0882331F024E030E030931E0152
:1002800020931D019923A1F1811132C081E090E0FA
:1002900090931E0180931D012BC0911107C082E035
:1002A00090E090931E0180931D0122C081E090E0B8
:1002B00090931E0180931D011BC0882339F083E0B9
:1002C00090E090931E0180931D0112C081E090E0A8
:1002D00090931E0180931D010BC081E090E09093EC
:1002E0001E0180931D0104C010921E0110921D0179
:1002F00080911D0190911E018230910571F018F4DA
:10030000019741F008958330910559F1049709F45C
:100310004BC0089510921501089585B1893008F0F9
:1003200048C09091150191110CC085B18F5F85B9BE
:1003300081E080931501809114018F5F80931401F7
:100340000895809114018A3040F0913031F485B1E4
:100350008F5F85B91092140108958F5F8093140107
:10036000089585B1882329F19091150191110CC050
:1003700085B1815085B981E0809315018091140188
:100380008F5F809314010895809114018A3040F0AA
:10039000913031F485B1815085B9109214010895DE
:1003A0008F5F8093140108951092150115B8109273
:1003B0001401089511B88FEF82B984B987E085B927
:1003C0006AE070E080E090E00E94F2000E94780015
:1003D0000E94030180911C018823E1F310921C010B
:0603E000F7CFF894FFCFF7
:1003E600030100000000000002000000006700009A
:0403F6000000000003
:00000001FF
