:100000000C948B000C94AA000C94AA000C94AA00E7
:100010000C94AA000C94AA000C94AA000C94AA00B8
:100020000C94AA000C94AA000C94AA000C94AA00A8
:100030000C94AA000C94E0020C94AA000C94AA0060
:100040000C94AA000C94AA000C94AA000C94AA0088
:100050000C94AA000C94AA000C94AA000C94AA0078
:100060000C94AA000C94AA000C94AA000C94AA0068
:100070000C94AA000C94AA000C94AA000C94AA0058
:100080000C94AA000C94AA000C94AA0066048F0495
:100090008F048F048F048F048F048F048F048F04C8
:1000A0008F048F048F048F048F048F048F048F04B8
:1000B0008F048F048F048F048F048F048F048F04A8
:1000C0008F048F048F048F048F048F048F048F0498
:1000D0008F0489048F048F048F048F048F048F048E
:1000E0007E048F048F048F048F048F0484046C04B7
:1000F00072048F048F048F048F048F048F048F0485
:100100008F048F048F048F048F048F048F048F0457
:100110008F048F04780411241FBECFEFD0E4DEBF1C
:10012000CDBF11E0A0E0B1E0E6E8F9E000E00BBFF0
:1001300002C007900D92A231B107D9F721E0A2E1E8
:10014000B1E001C01D92A731B207E1F70E94360469
:100150000C94C1040C940000CF93DF93CDB7DEB7AD
:1001600081E00E94D3000000DF91CF910895CF93EA
:10017000DF93CDB7DEB784E690E00E94770188E395
:100180000E94D30086E00E94D3008FE00E94D3003B
:1001900081E00E94D3008AE090E00E947701000095
:1001A000DF91CF910895CF93DF931F92CDB7DEB744
:1001B000898385E290E025E230E0F90120812F7B00
:1001C000FC0120838BE290E02981FC01208385E201
:1001D00090E025E230E0F90120812068FC012083D5
:1001E000000085E290E025E230E0F90120812F77E0
:1001F000FC01208382E090E00E94770100000F90D4
:10020000DF91CF910895CF93DF931F92CDB7DEB7E3
:10021000898385E290E025E230E0F90120812064C5
:10022000FC0120838BE290E02981FC01208385E2A0
:1002300090E025E230E0F90120812068FC01208374
:10024000000085E290E025E230E0F90120812F777F
:10025000FC01208381E090E00E94770100000F9074
:10026000DF91CF910895CF93DF9300D000D0CDB729
:10027000DEB78A837C836B830E94AC008A8189838A
:1002800011C0898191E0980F99830E9460018B8150
:100290009C819C012F5F3F4F3C832B83FC0180811D
:1002A0000E9403018B819C81FC018081882349F796
:1002B00000000F900F900F900F90DF91CF91089555
:1002C000CF93DF931F92CDB7DEB7898389818131C8
:1002D00028F4898181580E94D30004C08981815506
:1002E0000E94D30000000F90DF91CF910895CF932B
:1002F000DF9300D000D000D0CDB7DEB79E838D83D2
:100300001A82198213C01C821B8206C000008B81D6
:100310009C8101969C838B838B819C818730934049
:10032000ACF389819A8101969A83898329813A81E4
:100330008D819E812817390734F3000026960FB669
:10034000F894DEBF0FBECDBFDF91CF910895CF935C
:10035000DF9300D01F92CDB7DEB789837B836A839A
:1003600089818A3031F48A819B81BC018DE00E94B1
:10037000A70180EC90E0FC018081882F90E08072E2
:100380009927892BB1F386EC90E02981FC01208329
:1003900080E090E00F900F900F90DF91CF91089543
:1003A000CF93DF9300D01F92CDB7DEB789836A83E6
:1003B0004B838B81882371F08A81282F30E081E084
:1003C00090E002C0880F991F2A95E2F7982F898143
:1003D000892B0EC08A81282F30E081E090E002C096
:1003E000880F991F2A95E2F7982F90958981892384
:1003F0000F900F900F90DF91CF910895CF93DF93DF
:1004000000D0CDB7DEB789836A838A81282F30E098
:1004100081E090E002C0880F991F2A95E2F7982F9B
:10042000898189230F900F90DF91CF910895CF9309
:10043000DF93CDB7DEB72C970FB6F894DEBF0FBEB3
:10044000CDBF6D837E838F83988729873A874B87BB
:100450005C878D819E81AF81B88529853A854B85E2
:100460005C85BC01CD010E949604DC01CB0189832F
:100470009A83AB83BC8389819A81AB81BC81892BB0
:100480008A2B8B2B29F489859A85AB85BC8511C075
:1004900089859A85AB85BC858D839E83AF83B8871C
:1004A00089819A81AB81BC8189879A87AB87BC8718
:1004B000D0CFBC01CD012C960FB6F894DEBF0FBE95
:1004C000CDBFDF91CF910895CF93DF9300D000D0BF
:1004D000CDB7DEB769837A838B839C8389819A81C8
:1004E000AB81BC8180930E0190930F01A09310010A
:1004F000B093110180910E0190910F01A091100114
:10050000B09111018093130190931401A0931501F0
:10051000B093160100000F900F900F900F90DF9195
:10052000CF910895CF93DF93CDB7DEB781E890E008
:100530002BE0FC01208388E890E02DE730E0FC010F
:10054000318320838FE690E022E0FC01208384E861
:1005500090E0FC011182108280910E0190910F01B8
:10056000A0911001B0911101809313019093140197
:10057000A0931501B09316018FE590E02FE530E0D0
:10058000F90120812068FC0120830000DF91CF91D8
:100590000895CF93DF93CDB7DEB781E890E0FC01FB
:1005A00010820000DF91CF910895CF93DF93CDB7F4
:1005B000DEB781E0809312010000DF91CF910895B2
:1005C0001F920F9200905F000F92112400905B0029
:1005D0000F922F933F934F935F936F937F938F93DC
:1005E0009F93AF93BF93EF93FF93CF93DF93CDB7D9
:1005F000DEB78091130190911401A0911501B09183
:1006000016010197A109B109809313019093140178
:10061000A0931501B09316018091130190911401DC
:10062000A0911501B0911601892B8A2B8B2B91F487
:100630000E94D50280910E0190910F01A0911001AE
:10064000B09111018093130190931401A0931501AF
:10065000B09316010000DF91CF91FF91EF91BF9110
:10066000AF919F918F917F916F915F914F913F914A
:100670002F910F9000925B000F9000925F000F90FF
:100680001F9018950F931F93CF93DF93CDB7DEB7CD
:1006900008E210E040E064E08FEF0E94D001F80132
:1006A0008083000086E290E0FC018081809560E01C
:1006B0000E94FE01882311F081E3D3C086E290E01E
:1006C000FC018081809561E00E94FE01882311F089
:1006D00084E3C7C086E290E0FC018081809562E0FF
:1006E0000E94FE01882311F087E3BBC086E290E000
:1006F000FC018081809563E00E94FE01882311F057
:100700008AE2AFC008E210E040E065E08FEF0E94AF
:10071000D001F8018083000086E290E0FC01808136
:10072000809560E00E94FE01882311F082E399C069
:1007300086E290E0FC018081809561E00E94FE01EC
:10074000882311F085E38DC086E290E0FC01808172
:10075000809562E00E94FE01882311F088E381C049
:1007600086E290E0FC018081809563E00E94FE01BA
:10077000882311F080E375C008E210E040E066E0F5
:100780008FEF0E94D001F8018083000086E290E0A4
:10079000FC018081809560E00E94FE01882311F0B9
:1007A00083E35FC086E290E0FC018081809561E098
:1007B0000E94FE01882311F086E353C086E290E098
:1007C000FC018081809562E00E94FE01882311F087
:1007D00089E347C086E290E0FC018081809563E078
:1007E0000E94FE01882311F083E23BC008E210E082
:1007F00040E067E08FEF0E94D001F80180830000A5
:1008000086E290E0FC018081809560E00E94FE011C
:10081000882311F081E425C086E290E0FC0180810C
:10082000809561E00E94FE01882311F082E419C0E6
:1008300086E290E0FC018081809562E00E94FE01EA
:10084000882311F083E40DC086E290E0FC018081F2
:10085000809563E00E94FE01882311F084E401C0CA
:1008600080E0DF91CF911F910F910895CF93DF9397
:100870001F92CDB7DEB784E290E02FEFFC0120831A
:1008800085E290E0FC01108287E290E020EFFC011D
:10089000208388E290E02FE0FC0120830E94420345
:1008A00089838981882F90E0092E000CAA0BBB0B4D
:1008B00040E050E024E430E0841B950B2817390712
:1008C00070F18A5B9F4FFC010C94B80485E290E0C4
:1008D0002FE1FC01208329C085E290E021E0FC01AA
:1008E000208323C085E290E022E0FC0120831DC02C
:1008F00085E290E02DE0FC01208317C085E290E0C6
:100900002EE0FC01208311C085E290E0FC01108202
:100910000CC085E290E02FE0FC01208306C085E258
:1009200090E02BE1FC0120830000B8CFA1E21A2E59
:10093000AA1BBB1BFD010DC0AA1FBB1FEE1FFF1F83
:10094000A217B307E407F50720F0A21BB30BE40BD3
:10095000F50B661F771F881F991F1A9469F760951A
:100960007095809590959B01AC01BD01CF010895D4
:10097000EE0FFF1F0024001C0BBE0790F691E02D28
:060980000994F894FFCF7A
:100986000000000200000000A701000000000100B6
:0209960000005F
:00000001FF
