:100000000C9446000C9465000C9465000C946500FB
:100010000C9465000C9465000C9465000C946500CC
:100020000C9465000C9465000C9465000C946500BC
:100030000C9465000C949B020C9465000C94650074
:100040000C9465000C9465000C9465000C9465009C
:100050000C9465000C9465000C9465000C9465008C
:100060000C9465000C9465000C9465000C9465007C
:100070000C9465000C9465000C9465000C9465006C
:100080000C9465000C9465000C94650011241FBE4F
:10009000CFEFD0E4DEBFCDBF11E0A0E0B1E0E0E5FE
:1000A000F9E000E00BBF02C007900D92A635B10742
:1000B000D9F721E0A6E5B1E001C01D92AD35B20748
:1000C000E1F70E944E040C94A6040C940000CF9318
:1000D000DF93CDB7DEB781E00E948E000000DF9194
:1000E000CF910895CF93DF93CDB7DEB784E690E04C
:1000F0000E94320188E30E948E0086E00E948E00FA
:100100008FE00E948E0081E00E948E008AE090E0E5
:100110000E9432010000DF91CF910895CF93DF93C9
:100120001F92CDB7DEB789838BE290E02BE230E0FF
:10013000F90120812F7BFC01208388E290E0298156
:10014000FC0120838BE290E02BE230E0F90120817A
:100150002068FC01208300008BE290E02BE230E07D
:10016000F90120812F77FC01208382E090E00E943A
:10017000320100000F90DF91CF910895CF93DF936C
:100180001F92CDB7DEB789838BE290E02BE230E09F
:10019000F90120812064FC01208388E290E029811C
:1001A000FC0120838BE290E02BE230E0F90120811A
:1001B0002068FC01208300008BE290E02BE230E01D
:1001C000F90120812F77FC01208381E090E00E94DB
:1001D000320100000F90DF91CF910895CF93DF930C
:1001E00000D000D0CDB7DEB78A837C836B830E94BA
:1001F00067008A81898311C0898191E0980F998372
:100200000E941B018B819C819C012F5F3F4F3C838F
:100210002B83FC0180810E94BE008B819C81FC01AC
:100220008081882349F700000F900F900F900F9066
:10023000DF91CF910895CF93DF931F92CDB7DEB7B3
:1002400089838981813128F4898181580E948E00B7
:1002500004C0898181550E948E0000000F90DF91BB
:10026000CF910895CF93DF9300D000D000D0CDB7C9
:10027000DEB79E838D831A82198213C01C821B8273
:1002800006C000008B819C8101969C838B838B81AF
:100290009C8187309340ACF389819A8101969A833F
:1002A000898329813A818D819E812817390734F30A
:1002B000000026960FB6F894DEBF0FBECDBFDF91CB
:1002C000CF910895CF93DF9300D01F92CDB7DEB7C3
:1002D00089837B836A8389818A3031F48A819B8117
:1002E000BC018DE00E94620180EC90E0FC01808105
:1002F000882F90E080729927892BB1F386EC90E0EB
:100300002981FC01208380E090E00F900F900F90F6
:10031000DF91CF910895CF93DF9300D01F92CDB797
:10032000DEB789836A834B838B81882371F08A814E
:10033000282F30E081E090E002C0880F991F2A95B5
:10034000E2F7982F8981892B0EC08A81282F30E00F
:1003500081E090E002C0880F991F2A95E2F7982F5C
:100360009095898189230F900F900F90DF91CF9105
:100370000895CF93DF9300D0CDB7DEB789836A832A
:100380008A81282F30E081E090E002C0880F991F19
:100390002A95E2F7982F898189230F900F90DF919A
:1003A000CF910895CF93DF93CDB7DEB72C970FB6DB
:1003B000F894DEBF0FBECDBF6D837E838F83988799
:1003C00029873A874B875C878D819E81AF81B8856D
:1003D00029853A854B855C85BC01CD010E9484044A
:1003E000DC01CB0189839A83AB83BC8389819A81A9
:1003F000AB81BC81892B8A2B8B2B29F489859A852B
:10040000AB85BC8511C089859A85AB85BC858D83FC
:100410009E83AF83B88789819A81AB81BC818987AC
:100420009A87AB87BC87D0CFBC01CD012C960FB685
:10043000F894DEBF0FBECDBFDF91CF910895CF936B
:10044000DF9300D000D0CDB7DEB769837A838B838A
:100450009C8389819A81AB81BC8180930E019093AA
:100460000F01A0931001B093110180910E019091A2
:100470000F01A0911001B091110180935701909349
:100480005801A0935901B0935A0100000F900F90AA
:100490000F900F90DF91CF910895CF93DF93CDB759
:1004A000DEB781E890E02BE0FC01208388E890E053
:1004B0002DE730E0FC01318320838FE690E022E0DD
:1004C000FC01208384E890E0FC011182108280917D
:1004D0000E0190910F01A0911001B0911101809334
:1004E000570190935801A0935901B0935A018FE599
:1004F00090E02FE530E0F90120812068FC012083A5
:100500000000DF91CF910895CF93DF93CDB7DEB791
:1005100081E890E0FC0110820000DF91CF91089506
:10052000CF93DF93CDB7DEB781E080935601000013
:10053000DF91CF9108951F920F9200905F000F926C
:10054000112400905B000F922F933F934F935F9382
:100550006F937F938F939F93AF93BF93EF93FF938B
:10056000CF93DF93CDB7DEB78091570190915801BB
:10057000A0915901B0915A010197A109B109809345
:10058000570190935801A0935901B0935A0180915B
:10059000570190915801A0915901B0915A01892BAE
:1005A0008A2B8B2B91F40E94900280910E019091E6
:1005B0000F01A0911001B091110180935701909308
:1005C0005801A0935901B0935A010000DF91CF91D7
:1005D000FF91EF91BF91AF919F918F917F916F911B
:1005E0005F914F913F912F910F9000925B000F9080
:1005F00000925F000F901F9018950F931F93CF9359
:10060000DF93CDB7DEB702E210E040E064E08FEFA9
:100610000E948B01F8018083000080E290E0FC01E1
:100620008081809560E00E94B901882311F081E308
:10063000D3C080E290E0FC018081809561E00E945F
:10064000B901882311F084E3C7C080E290E0FC0187
:100650008081809562E00E94B901882311F087E3D0
:10066000BBC080E290E0FC018081809563E00E9445
:10067000B901882311F08AE2AFC002E210E040E045
:1006800065E08FEF0E948B01F8018083000080E21B
:1006900090E0FC018081809560E00E94B901882390
:1006A00011F082E399C080E290E0FC0180818095A6
:1006B00061E00E94B901882311F085E38DC080E2DA
:1006C00090E0FC018081809562E00E94B90188235E
:1006D00011F088E381C080E290E0FC018081809588
:1006E00063E00E94B901882311F080E375C002E243
:1006F00010E040E066E08FEF0E948B01F8018083FC
:10070000000080E290E0FC018081809560E00E9422
:10071000B901882311F083E35FC080E290E0FC011F
:100720008081809561E00E94B901882311F086E301
:1007300053C080E290E0FC018081809562E00E94DD
:10074000B901882311F089E347C080E290E0FC0101
:100750008081809563E00E94B901882311F083E2D3
:100760003BC002E210E040E067E08FEF0E948B01A7
:10077000F8018083000080E290E0FC018081809598
:1007800060E00E94B901882311F081E425C080E275
:1007900090E0FC018081809561E00E94B90188238E
:1007A00011F082E419C080E290E0FC018081809524
:1007B00062E00E94B901882311F083E40DC080E259
:1007C00090E0FC018081809563E00E94B90188235C
:1007D00011F084E401C080E0DF91CF911F910F916F
:1007E0000895CF93DF9300D0CDB7DEB79A83898386
:1007F00089819A81009719F0019731F045C081E015
:1008000090E09A83898343C081E080935B012FC08D
:1008100080915B010E941B0180915B01882F90E019
:100820009C012250310980911201882F90E0820FA3
:10083000931F8D5E9E4FFC0180810E94BE008091BF
:100840001201882F90E09C012F5F3F4F80915B0148
:10085000882F90E0820F931F8234910519F481E074
:100860008093120180915B018F5F80935B01809187
:100870005B01813168F2809112018F5F80931201D8
:1008800081E090E09A8389831A821982000089812D
:100890009A810F900F90DF91CF910895CF93DF93BE
:1008A000CDB7DEB781E290E020EFFC01208382E249
:1008B00090E02FE0FC01208384E290E02FEFFC0128
:1008C000208385E290E0FC01108287E290E02FEF28
:1008D000FC01208388E290E0FC0110828AE290E033
:1008E0002FEFFC0120838BE290E0FC0110820E943C
:1008F00072000E94670081E00E941B010E94670055
:1009000083E90E94BE00F7CFA1E21A2EAA1BBB1BEF
:10091000FD010DC0AA1FBB1FEE1FFF1FA217B307CB
:10092000E407F50720F0A21BB30BE40BF50B661FE1
:10093000771F881F991F1A9469F7609570958095A5
:1009400090959B01AC01BD01CF010895F894FFCFB4
:100950000000000200000000620100000000010031
:1009600000000120202020202020202020202020E6
:1009700020435331323042206973204C6567656EE5
:10098000642E2E2E7761697420666F722069742040
:1009900044415259212020202020202020202020A6
:0609A000202020202000B1
:00000001FF
