:100000000C9446000C9465000C9465000C946500FB
:100010000C9465000C9465000C9465000C946500CC
:100020000C9465000C9465000C9465000C946500BC
:100030000C9465000C94DE000C9465000C94650033
:100040000C9465000C9465000C9465000C9465009C
:100050000C9465000C9465000C9465000C9465008C
:100060000C9465000C9465000C9465000C9465007C
:100070000C9465000C9465000C9465000C9465006C
:100080000C9465000C9465000C94650011241FBE4F
:10009000CFEFD0E4DEBFCDBF11E0A0E0B1E0ECEDEA
:1000A000F4E000E00BBF02C007900D92A431B1074D
:1000B000D9F721E0A4E1B1E001C01D92AA34B20752
:1000C000E1F70E9430020C946C020C940000CF9374
:1000D000DF9300D01F92CDB7DEB789837B836A831D
:1000E00089818A3031F48A819B81BC018DE00E9434
:1000F000670080EC90E0FC018081882F90E08072A6
:100100009927892BB1F386EC90E02981FC012083AB
:1001100080E090E00F900F900F90DF91CF910895C5
:10012000CF93DF93CDB7DEB781E890E02BE0FC0101
:10013000208388E890E02DE730E0FC0131832083C4
:100140008FE690E022E0FC01208384E890E0FC014F
:100150001182108280910E0190910F01A0911001E7
:10016000B09111018093150190931601A09317018E
:10017000B09318018FE590E02FE530E0F901208180
:100180002068FC0120830000DF91CF910895CF9378
:10019000DF93CDB7DEB781E890E0FC01108200006C
:1001A000DF91CF910895CF93DF93CDB7DEB781E094
:1001B000809314010000DF91CF9108951F920F9258
:1001C00000905F000F92112400905B000F922F931C
:1001D0003F934F935F936F937F938F939F93AF93CF
:1001E000BF93EF93FF93CF93DF93CDB7DEB78091AB
:1001F000150190911601A0911701B0911801019776
:10020000A109B1098093150190931601A0931701DC
:10021000B09318018091150190911601A0911701DA
:10022000B0911801892B8A2B8B2B91F40E94D3005B
:1002300080910E0190910F01A0911001B0911101D8
:100240008093150190931601A0931701B0931801A4
:100250000000DF91CF91FF91EF91BF91AF919F91FE
:100260008F917F916F915F914F913F912F910F905F
:1002700000925B000F9000925F000F901F90189506
:10028000CF93DF9300D000D0CDB7DEB769837A83F8
:100290008B839C8389819A81AB81BC8180930E0181
:1002A00090930F01A0931001B093110180910E0162
:1002B00090910F01A0911001B0911101809315014F
:1002C00090931601A0931701B093180100000F90AE
:1002D0000F900F900F90DF91CF910895CF93DF9300
:1002E000CDB7DEB7809142019091430181309105F5
:1002F00081F08130910530F08230910589F00397CB
:10030000B1F01CC081E090E09093430180934201E2
:100310001AC082E090E0909343018093420113C0A1
:1003200083E090E090934301809342010CC081E010
:1003300090E0909343018093420105C010924301E5
:10034000109242010000809142019091430181305E
:10035000910549F08130910590F08230910539F096
:10036000039749F00DC081E08093190109C082E034
:100370008093190105C084E08093190101C0000039
:100380000000DF91CF910895CF93DF93CDB7DEB713
:1003900080914801909149018130910569F0813047
:1003A000910518F0029779F015C081E090E09093E4
:1003B00049018093480113C082E090E09093490185
:1003C000809348010CC081E090E0909349018093B4
:1003D000480105C010924901109248010000809127
:1003E0004801909149018130910531F081309105AA
:1003F00050F0029729F008C088E080931A0104C0E9
:1004000010921A0101C000000000DF91CF91089501
:10041000CF93DF93CDB7DEB780914601909147012E
:10042000892B29F410924701109246010000809117
:10043000460190914701892B09F00EC090911A0155
:1004400080911901892B80931D0185E290E0209114
:100450001D01FC01208300000000DF91CF91089571
:10046000CF93DF93CDB7DEB781E290E0FC0110823D
:1004700082E290E02FEFFC01208384E290E02FEFF6
:10048000FC01208385E290E0FC01108268EE73E0BD
:1004900080E090E00E9440010E94900080E290E0A5
:1004A000FC018081882F90E081709927892B39F099
:1004B0000E94C4010E946E010E94080205C085E2EC
:1004C00090E021E0FC01208300008091140188234A
:0C04D000E1F310921401E2CFF894FFCF8A
:1004DC0000000002000000006700000000000100A6
:0404EC000000030009
:00000001FF
