:100000000C9446000C9465000C9465000C946500FB
:100010000C9465000C9465000C9465000C946500CC
:100020000C9465000C9465000C9465000C946500BC
:100030000C9465000C94DE000C9465000C94650033
:100040000C9465000C9465000C9465000C9465009C
:100050000C9465000C9465000C9465000C9465008C
:100060000C9465000C9465000C9465000C9465007C
:100070000C9465000C9465000C9465000C9465006C
:100080000C9465000C9465000C94650011241FBE4F
:10009000CFEFD0E4DEBFCDBF11E0A0E0B1E0E6E2FB
:1000A000FDE000E00BBF02C007900D92A631B10742
:1000B000D9F721E0A6E1B1E001C01D92AD36B2074B
:1000C000E1F70E9417040C9491060C940000CF9362
:1000D000DF9300D01F92CDB7DEB789837B836A831D
:1000E00089818A3031F48A819B81BC018DE00E9434
:1000F000670080EC90E0FC018081882F90E08072A6
:100100009927892BB1F386EC90E02981FC012083AB
:1001100080E090E00F900F900F90DF91CF910895C5
:10012000CF93DF93CDB7DEB781E890E02BE0FC0101
:10013000208388E890E02DE730E0FC0131832083C4
:100140008FE690E022E0FC01208384E890E0FC014F
:100150001182108280910E0190910F01A0911001E7
:10016000B09111018093170190931801A093190188
:10017000B0931A018FE590E02FE530E0F90120817E
:100180002068FC0120830000DF91CF910895CF9378
:10019000DF93CDB7DEB781E890E0FC01108200006C
:1001A000DF91CF910895CF93DF93CDB7DEB781E094
:1001B000809316010000DF91CF9108951F920F9256
:1001C00000905F000F92112400905B000F922F931C
:1001D0003F934F935F936F937F938F939F93AF93CF
:1001E000BF93EF93FF93CF93DF93CDB7DEB78091AB
:1001F000170190911801A0911901B0911A0101976E
:10020000A109B1098093170190931801A0931901D6
:10021000B0931A018091170190911801A0911901D2
:10022000B0911A01892B8A2B8B2B91F40E94D30059
:1002300080910E0190910F01A0911001B0911101D8
:100240008093170190931801A0931901B0931A019C
:100250000000DF91CF91FF91EF91BF91AF919F91FE
:100260008F917F916F915F914F913F912F910F905F
:1002700000925B000F9000925F000F901F90189506
:10028000CF93DF9300D000D0CDB7DEB769837A83F8
:100290008B839C8389819A81AB81BC8180930E0181
:1002A00090930F01A0931001B093110180910E0162
:1002B00090910F01A0911001B0911101809317014D
:1002C00090931801A0931901B0931A0100000F90A8
:1002D0000F900F900F90DF91CF9108950F931F9380
:1002E000CF93DF9300D000D000D0CDB7DEB76B83C3
:1002F0007C838D839E838091210190912201A09126
:100300002301B09124019C01AD016B817C818D8121
:100310009E810E94FD04882309F47BC020E030E028
:10032000A9016B817C818D819E810E94FD048823BF
:1003300051F481E990E021E930E0F9012081287051
:10034000FC01208309C081E990E021E930E0F90156
:1003500020812360FC01208328E539E344E75FE343
:100360006B817C818D819E810E94FD04882344F4F1
:1003700088E990E02FEF3FEFFC013183208338C004
:1003800020E034E244EF56E46B817C818D819E81D4
:100390000E941F06181634F488E990E0FC011182CF
:1003A000108226C008E910E020E030E040E053E48D
:1003B0006B817C818D819E810E942406DC01CB01B2
:1003C0009C01AD0160E074E284EF9AE40E940205B2
:1003D000DC01CB01BC01CD010E947405DC01CB0125
:1003E0009A83898389819A810197F8019183808317
:1003F00084E990E0FC01118210828B819C81AD81A7
:10040000BE818093210190932201A0932301B09398
:100410002401000026960FB6F894DEBF0FBECDBFB4
:10042000DF91CF911F910F910895CF93DF93CDB7B7
:10043000DEB780E990E020E4FC01208381E990E0D0
:100440002BE0FC01208360E070E0CB010E946E0194
:100450000000DF91CF910895CF93DF93CDB7DEB742
:1004600080E990E0FC01108281E990E0FC011082BB
:100470000000DF91CF910895CF93DF93CDB7DEB722
:1004800080916301909164018130910581F0813008
:10049000910530F08230910589F00397B1F01CC0CE
:1004A00081E090E090936401809363011AC082E040
:1004B00090E0909364018093630113C083E090E027
:1004C00090936401809363010CC081E090E090936D
:1004D00064018093630105C010926401109263016E
:1004E000000080916301909164018130910549F091
:1004F0008130910590F08230910539F0039749F0F1
:100500000DC081E080931B0109C082E080931B0134
:1005100005C084E080931B0101C000000000DF9152
:10052000CF910895CF93DF93CDB7DEB780916B0164
:1005300090916C018130910569F08130910518F03E
:10054000029779F015C081E090E090936C01809360
:100550006B0113C082E090E090936C0180936B017B
:100560000CC081E090E090936C0180936B0105C01A
:1005700010926C0110926B01000080916B019091C0
:100580006C018130910531F08130910550F0029776
:1005900029F008C088E080931C0104C010921C015F
:1005A00001C000000000DF91CF910895CF93DF9349
:1005B0001F92CDB7DEB780E290E0FC01808180958C
:1005C00084708983809165019091660181309105E5
:1005D00081F08130910530F082309105D9F0039798
:1005E00051F13AC081E090E09093660180936501FB
:1005F00038C08981882339F082E090E090936601C9
:10060000809365012EC081E090E090936601809315
:10061000650127C08981882339F083E090E09093B9
:100620006601809365011DC081E090E090936601B2
:100630008093650116C08981882339F082E090E0BB
:1006400090936601809365010CC081E090E09093E7
:1006500066018093650105C01092660110926501E4
:10066000000080916501909166018130910549F00B
:100670008130910598F08230910531F0039741F077
:100680000AC010921F010BC080E180931F0107C0B8
:1006900010921F0104C010921F0101C00000000051
:1006A0000F90DF91CF910895CF93DF9300D0CDB716
:1006B000DEB780E290E0FC018081882F90E08170BD
:1006C000992721E0892B09F020E0298380E290E03E
:1006D000FC018081809582708A8380916101909174
:1006E00062018230910581F18330910528F40097F1
:1006F00049F0019771F04AC08330910561F1049788
:1007000089F144C081E090E090936201809361019F
:1007100042C08981882339F082E090E090936201A1
:100720008093610138C08A81882339F083E090E0AA
:1007300090936201809361012EC081E090E09093DC
:1007400062018093610127C084E090E09093620190
:100750008093610120C084E090E0909362018093D7
:10076000610119C08981882351F48A81882339F471
:1007700081E090E090936201809361010CC084E07D
:1007800090E0909362018093610105C01092620134
:1007900010926101000080916101909162018130AD
:1007A0009105A9F081309105A0F08230910519F0F2
:1007B000039739F00FC0809112018F5F809312016F
:1007C00009C08091120181508093120103C0000082
:1007D00001C0000000000F900F90DF91CF910895AD
:1007E000CF93DF93CDB7DEB78091690190916A0115
:1007F000892B29F410926A011092690100008091FE
:10080000690190916A01892B09F00DC085E290E0A1
:1008100030911F0120911C01322B20911B01232BB1
:10082000FC01208300000000DF91CF910895CF9359
:10083000DF93CDB7DEB764970FB6F894DEBF0FBE77
:10084000CDBF81E290E0FC01108282E290E02FEFC8
:10085000FC01208384E290E02FEFFC01208385E2FD
:1008600090E0FC01108288EE93E0A0E0B0E0898384
:100870009A83AB83BC838CE291E0A0E0B0E08D83EF
:100880009E83AF83B88782E090E0A0E0B0E08987E4
:100890009A87AB87BC8784EF91E0A0E0B0E08D87BA
:1008A0009E87AF87B88B81E090E0A0E0B0E0898BB5
:1008B0009A8BAB8BBC8B89899A89AB89BC89BC012B
:1008C000CD010E9440010E9490000E94150280E22A
:1008D00090E0FC018081882F90E081709927892B1E
:1008E00009F43EC089819A81AB81BC81883E9340E6
:1008F000A105B10530F00E94920219821A821B8272
:100900001C828D819E81AF81B8858C329140A1057A
:10091000B10530F00E943C021D821E821F821886A3
:100920008D859E85AF85B889843F9140A105B1052D
:1009300030F00E9454031D861E861F86188A898502
:100940009A85AB85BC850297A105B10530F00E9460
:10095000D60219861A861B861C860E94F00305C0E3
:1009600085E290E021E0FC012083000080911601E7
:100970008823E1F31092160129813A814B815C8131
:1009800089899A89AB89BC89820F931FA41FB51FDF
:1009900089839A83AB83BC832D813E814F815885A7
:1009A00089899A89AB89BC89820F931FA41FB51FBF
:1009B0008D839E83AF83B88729853A854B855C8577
:1009C00089899A89AB89BC89820F931FA41FB51F9F
:1009D00089879A87AB87BC872D853E854F85588947
:1009E00089899A89AB89BC89820F931FA41FB51F7F
:1009F0008D879E87AF87B88B6ACF0E94AA0508F4BF
:100A000081E008950E9416050C94E5050E94DE051C
:100A100058F00E94D70540F029F45F3F29F00C946C
:100A2000CE0551110C9419060C94D4050E94F605BC
:100A300068F39923B1F3552391F3951B550BBB270D
:100A4000AA2762177307840738F09F5F5F4F220F52
:100A5000331F441FAA1FA9F335D00E2E3AF0E0E849
:100A600032D091505040E695001CCAF72BD0FE2F93
:100A700029D0660F771F881FBB1F26173707480727
:100A8000AB07B0E809F0BB0B802DBF01FF279358DF
:100A90005F4F3AF09E3F510578F00C94CE050C94D0
:100AA00019065F3FE4F3983ED4F3869577956795F2
:100AB000B795F7959F5FC9F7880F911D9695879514
:100AC00097F90895E1E0660F771F881FBB1F621733
:100AD00073078407BA0720F0621B730B840BBA0BF1
:100AE000EE1F88F7E09508950E947B056894B11188
:100AF0000C94190608950E94FE0588F09F5798F0FF
:100B0000B92F9927B751B0F0E1F0660F771F881F12
:100B1000991F1AF0BA95C9F714C0B13091F00E942C
:100B20001806B1E008950C941806672F782F8827CF
:100B3000B85F39F0B93FCCF3869577956795B39553
:100B4000D9F73EF490958095709561957F4F8F4FC2
:100B50009F4F0895990F0008550FAA0BE0E8FEEF8C
:100B600016161706E807F907C0F012161306E40771
:100B7000F50798F0621B730B840B950B39F40A266A
:100B800061F0232B242B252B21F408950A2609F448
:100B9000A140A6958FEF811D811D089597F99F674C
:100BA00080E870E060E008959FEF80EC08950024F5
:100BB0000A941616170618060906089500240A94C2
:100BC00012161306140605060895092E0394000C48
:100BD00011F4882352F0BB0F40F4BF2B11F460FFD7
:100BE00004C06F5F7F4F8F4F9F4F089557FD905800
:100BF000440F551F59F05F3F71F04795880F97FBE1
:100C0000991F61F09F3F79F087950895121613069A
:100C10001406551FF2CF4695F1DF08C016161706C9
:100C20001806991FF1CF86957105610508940895FE
:100C3000E894BB2766277727CB0197F908950E9490
:100C4000AA0508F48FEF08950E9437060C94E50575
:100C50000E94D70538F00E94DE0520F0952311F0A0
:100C60000C94CE050C94D40511240C9419060E9402
:100C7000F60570F3959FC1F3950F50E0551F629FE5
:100C8000F001729FBB27F00DB11D639FAA27F00DE5
:100C9000B11DAA1F649F6627B00DA11D661F829F0C
:100CA0002227B00DA11D621F739FB00DA11D621FF1
:100CB000839FA00D611D221F749F3327A00D611D0E
:100CC000231F849F600D211D822F762F6A2F1124F0
:100CD0009F5750409AF0F1F088234AF0EE0FFF1F23
:100CE000BB1F661F771F881F91505040A9F79E3F7A
:100CF000510580F00C94CE050C9419065F3FE4F387
:100D0000983ED4F3869577956795B795F795E795CF
:100D10009F5FC1F7FE2B880F911D9695879597F9D8
:060D20000895F894FFCFD6
:100D26000000000200000000670000000000010053
:060D3600000003050000AF
:00000001FF
