:100000000C9446000C9465000C9465000C946500FB
:100010000C9465000C9465000C9465000C946500CC
:100020000C9465000C9465000C9465000C946500BC
:100030000C9465000C94DE000C9465000C94650033
:100040000C9465000C9465000C9465000C9465009C
:100050000C9465000C9465000C9465000C9465008C
:100060000C9465000C9465000C9465000C9465007C
:100070000C9465000C9465000C9465000C9465006C
:100080000C9465000C9465000C94650011241FBE4F
:10009000CFEFD0E4DEBFCDBF11E0A0E0B1E0E2E7FA
:1000A000F7E000E00BBF02C007900D92A831B10746
:1000B000D9F721E0A8E1B1E001C01D92A033B20759
:1000C000E1F70E9400030C94B7030C940000CF9357
:1000D000DF9300D01F92CDB7DEB789837B836A831D
:1000E00089818A3031F48A819B81BC018DE00E9434
:1000F000670080EC90E0FC018081882F90E08072A6
:100100009927892BB1F386EC90E02981FC012083AB
:1001100080E090E00F900F900F90DF91CF910895C5
:10012000CF93DF93CDB7DEB781E890E02BE0FC0101
:10013000208388E890E02DE730E0FC0131832083C4
:100140008FE690E022E0FC01208384E890E0FC014F
:100150001182108280910E0190910F01A0911001E7
:10016000B09111018093190190931A01A0931B0182
:10017000B0931C018FE590E02FE530E0F90120817C
:100180002068FC0120830000DF91CF910895CF9378
:10019000DF93CDB7DEB781E890E0FC01108200006C
:1001A000DF91CF910895CF93DF93CDB7DEB781E094
:1001B000809318010000DF91CF9108951F920F9254
:1001C00000905F000F92112400905B000F922F931C
:1001D0003F934F935F936F937F938F939F93AF93CF
:1001E000BF93EF93FF93CF93DF93CDB7DEB78091AB
:1001F000190190911A01A0911B01B0911C01019766
:10020000A109B1098093190190931A01A0931B01D0
:10021000B0931C018091190190911A01A0911B01CA
:10022000B0911C01892B8A2B8B2B91F40E94D30057
:1002300080910E0190910F01A0911001B0911101D8
:100240008093190190931A01A0931B01B0931C0194
:100250000000DF91CF91FF91EF91BF91AF919F91FE
:100260008F917F916F915F914F913F912F910F905F
:1002700000925B000F9000925F000F901F90189506
:10028000CF93DF9300D000D0CDB7DEB769837A83F8
:100290008B839C8389819A81AB81BC8180930E0181
:1002A00090930F01A0931001B093110180910E0162
:1002B00090910F01A0911001B0911101809319014B
:1002C00090931A01A0931B01B0931C0100000F90A2
:1002D0000F900F900F90DF91CF910895CF93DF9300
:1002E000CDB7DEB78091260190912701813091052D
:1002F00081F08130910530F08230910589F00397CB
:10030000B1F01CC081E090E090932701809326011A
:100310001AC082E090E0909327018093260113C0D9
:1003200083E090E090932701809326010CC081E048
:1003300090E0909327018093260105C01092270139
:1003400010922601000080912601909127018130B2
:10035000910549F08130910590F08230910539F096
:10036000039749F00DC081E080931D0109C082E030
:1003700080931D0105C084E080931D0101C0000031
:100380000000DF91CF910895CF93DF93CDB7DEB713
:1003900080912E0190912F018130910569F081307B
:1003A000910518F0029779F015C081E090E09093E4
:1003B0002F0180932E0113C082E090E090932F01D3
:1003C00080932E010CC081E090E090932F018093E8
:1003D0002E0105C010922F0110922E010000809175
:1003E0002E0190912F018130910531F081309105DE
:1003F00050F0029729F008C088E080931E0104C0E5
:1004000010921E0101C000000000DF91CF910895FD
:10041000CF93DF931F92CDB7DEB780E290E0FC016F
:10042000808180958370898389818130F1F4809106
:10043000120190911301A0911401B09115010A9736
:10044000A105B10590F480912101882F90E00196DB
:10045000092E000CAA0BBB0B809312019093130181
:10046000A0931401B093150120C089818230E9F472
:100470008091120190911301A0911401B091150186
:10048000892B8A2B8B2B89F080911601882F90E085
:100490000197092E000CAA0BBB0B809312019093BD
:1004A0001301A0931401B0931501000000000F90F8
:1004B000DF91CF910895CF93DF931F92CDB7DEB731
:1004C00080E290E0FC018081809584708983809136
:1004D0002801909129018130910581F081309105A9
:1004E00030F082309105D9F0039751F13AC081E0A4
:1004F00090E0909329018093280138C08981882356
:1005000039F082E090E090932901809328012EC079
:1005100081E090E0909329018093280127C0898190
:10052000882339F083E090E090932901809328019B
:100530001DC081E090E0909329018093280116C0AE
:100540008981882339F082E090E09093290180939B
:1005500028010CC081E090E090932901809328014C
:1005600005C01092290110922801000080912801F5
:10057000909129018130910549F08130910598F0E1
:100580008230910531F0039741F00AC010922201A8
:100590000BC080E18093220107C01092220104C0A9
:1005A0001092220101C0000000000F90DF91CF9156
:1005B0000895CF93DF93CDB7DEB780912C01909152
:1005C0002D01892B29F410922D0110922C0100008D
:1005D00080912C0190912D01892B09F00DC085E2AD
:1005E00090E03091220120911E01322B20911D01BB
:1005F000232BFC01208300000000DF91CF910895A0
:10060000CF93DF93CDB7DEB760970FB6F894DEBF18
:100610000FBECDBF81E290E0FC01108282E290E04B
:100620002FEFFC01208384E290E02FEFFC01208378
:1006300085E290E0FC01108288EE93E0A0E0B0E05B
:1006400089839A83AB83BC838CE291E0A0E0B0E025
:100650008D839E83AF83B88781E090E0A0E0B0E017
:1006600089879A87AB87BC8781E090E0A0E0B0E003
:100670008D879E87AF87B88B8D859E85AF85B8891E
:10068000BC01CD010E9440010E94900089819A81A5
:10069000AB81BC81883E9340A105B10530F00E943A
:1006A000C40119821A821B821C828D819E81AF81B6
:1006B000B8858C329140A105B10530F00E946E01E1
:1006C0001D821E821F8218860E94080280911201DC
:1006D00090911301A0911401B091150129853A85DB
:1006E0004B855C85281739074A075B0730F00E9465
:1006F0005B0219861A861B861C860E94D90200009E
:10070000809118018823E1F31092180129813A8120
:100710004B815C818D859E85AF85B889820F931F43
:10072000A41FB51F89839A83AB83BC832D813E812F
:100730004F8158858D859E85AF85B889820F931F1F
:10074000A41FB51F8D839E83AF83B88729853A8503
:100750004B855C858D859E85AF85B889820F931FFB
:10076000A41FB51F89879A87AB87BC878FCFF89462
:02077000FFCFB9
:10077200000000020000000067000000000001000D
:08078200000002000000050068
:00000001FF
