:100000000C9446000C945D000C945D000C945D0013
:100010000C945D000C945D000C945D000C945D00EC
:100020000C945D000C945D000C945D000C945D00DC
:100030000C945D000C945D000C945D000C945D00CC
:100040000C945D000C945D000C945D000C945D00BC
:100050000C945D000C945D000C945D000C945D00AC
:100060000C945D000C945D000C945D000C945D009C
:100070000C945D000C945D000C945D000C945D008C
:100080000C945D000C945D000C945D0011241FBE67
:10009000CFEFD0E4DEBFCDBF11E0A0E0B1E0EEE3F2
:1000A000F2E000E00BBF02C007900D92AE30B10746
:1000B000D9F70E9488000C941D010C940000CF9386
:1000C000DF9300D00F92CDB7DEB789837B836A833D
:1000D00089818A3031F48A819B81BC018DE00E9444
:1000E0005F0080EC90E0FC018081882F90E08072BE
:1000F0009927892BB1F386EC90E02981FC012083BC
:1001000080E090E00F900F900F90DF91CF910895D5
:10011000CF93DF9300D000D0CDB7DEB781E290E07F
:10012000FC01108282E290E02FEFFC01208384E248
:1001300090E0FC01108285E290E02FEFFC0120832B
:1001400087E290E0FC01108288E290E02FEFFC0152
:1001500020838AE290E02FEFFC0120838BE290E085
:10016000FC011082198280E290E0FC0180818A8388
:1001700083E290E0FC0180818B8386E290E0FC01C9
:1001800080818C838A81282F30E08B81882F90E0BA
:10019000280F391F8C81882F90E0820F931F8D3894
:1001A00091054CF08BE290E0FC0120818BE290E025
:1001B0002160FC0120839A818C818917B8F48A819F
:1001C000282F30E08C81882F90E0A901481B590B23
:1001D000CA018135910504F18BE290E0FC01208198
:1001E0008BE290E02260FC01208316C08C81282FD6
:1001F00030E08A81882F90E0A901481B590BCA0181
:10020000813591054CF08BE290E0FC0120818BE27E
:1002100090E02260FC0120839A818B81890F9C8170
:10022000890F89838BE290E0FC0130818BE290E0C2
:0E0230002981232BFC01208396CFF894FFCF69
:0E023E0000000002000000005F000000000051
:00000001FF
