:100000000C9446000C945D000C945D000C945D0013
:100010000C945D000C945D000C945D000C945D00EC
:100020000C945D000C945D000C945D000C945D00DC
:100030000C945D000C945D000C945D000C945D00CC
:100040000C945D000C945D000C945D000C945D00BC
:100050000C945D000C945D000C945D000C945D00AC
:100060000C945D000C945D000C945D000C945D009C
:100070000C945D000C945D000C945D000C945D008C
:100080000C945D000C945D000C945D0011241FBE67
:10009000CFEFD0E4DEBFCDBF11E0A0E0B1E0E6ECF1
:1000A000F1E000E00BBF02C007900D92AE30B10747
:1000B000D9F70E9488000C94E1000C940000CF93C3
:1000C000DF9300D00F92CDB7DEB789837B836A833D
:1000D00089818A3031F48A819B81BC018DE00E9444
:1000E0005F0080EC90E0FC018081882F90E08072BE
:1000F0009927892BB1F386EC90E02981FC012083BC
:1001000080E090E00F900F900F90DF91CF910895D5
:10011000CF93DF9300D000D00F92CDB7DEB781E24E
:1001200090E0FC01108287E290E02FEFFC01208339
:1001300082E290E02FEFFC01208388E290E0FC0156
:1001400010821A82198280E290E0FC018081817025
:100150008B8380E290E0FC01808182708C8380E25E
:1001600090E0FC01808184708D8380E290E0FC014E
:10017000808188708A8319828C8186958C838D8199
:10018000869586958D838A818695869586958A83C0
:100190009B818C81980F8D81890F9A81890F89832A
:1001A0008981853038F494E08981F92FF81B8F2FED
:1001B000898301C0198288E290E02981FC012083B3
:0601C000C2CFF894FFCF4E
:0E01C60000000002000000005F0000000000CA
:00000001FF
